{
  "_format": "hh-sol-artifact-1",
  "contractName": "Myutruvian",
  "sourceName": "contracts/myutruvian.sol",
  "abi": [
    {
      "inputs": [
        {
          "internalType": "address",
          "name": "_owner",
          "type": "address"
        },
        {
          "internalType": "address",
          "name": "_payee",
          "type": "address"
        },
        {
          "internalType": "address",
          "name": "_ethVault",
          "type": "address"
        },
        {
          "internalType": "contract IERC20",
          "name": "_myuToken",
          "type": "address"
        },
        {
          "internalType": "contract IERC20",
          "name": "_degenToken",
          "type": "address"
        },
        {
          "internalType": "address",
          "name": "_myuVault",
          "type": "address"
        },
        {
          "internalType": "address",
          "name": "_degenVault",
          "type": "address"
        },
        {
          "internalType": "string",
          "name": "_prerevealURI",
          "type": "string"
        }
      ],
      "stateMutability": "nonpayable",
      "type": "constructor"
    },
    {
      "inputs": [],
      "name": "ERC721EnumerableForbiddenBatchMint",
      "type": "error"
    },
    {
      "inputs": [
        {
          "internalType": "address",
          "name": "sender",
          "type": "address"
        },
        {
          "internalType": "uint256",
          "name": "tokenId",
          "type": "uint256"
        },
        {
          "internalType": "address",
          "name": "owner",
          "type": "address"
        }
      ],
      "name": "ERC721IncorrectOwner",
      "type": "error"
    },
    {
      "inputs": [
        {
          "internalType": "address",
          "name": "operator",
          "type": "address"
        },
        {
          "internalType": "uint256",
          "name": "tokenId",
          "type": "uint256"
        }
      ],
      "name": "ERC721InsufficientApproval",
      "type": "error"
    },
    {
      "inputs": [
        {
          "internalType": "address",
          "name": "approver",
          "type": "address"
        }
      ],
      "name": "ERC721InvalidApprover",
      "type": "error"
    },
    {
      "inputs": [
        {
          "internalType": "address",
          "name": "operator",
          "type": "address"
        }
      ],
      "name": "ERC721InvalidOperator",
      "type": "error"
    },
    {
      "inputs": [
        {
          "internalType": "address",
          "name": "owner",
          "type": "address"
        }
      ],
      "name": "ERC721InvalidOwner",
      "type": "error"
    },
    {
      "inputs": [
        {
          "internalType": "address",
          "name": "receiver",
          "type": "address"
        }
      ],
      "name": "ERC721InvalidReceiver",
      "type": "error"
    },
    {
      "inputs": [
        {
          "internalType": "address",
          "name": "sender",
          "type": "address"
        }
      ],
      "name": "ERC721InvalidSender",
      "type": "error"
    },
    {
      "inputs": [
        {
          "internalType": "uint256",
          "name": "tokenId",
          "type": "uint256"
        }
      ],
      "name": "ERC721NonexistentToken",
      "type": "error"
    },
    {
      "inputs": [
        {
          "internalType": "address",
          "name": "owner",
          "type": "address"
        },
        {
          "internalType": "uint256",
          "name": "index",
          "type": "uint256"
        }
      ],
      "name": "ERC721OutOfBoundsIndex",
      "type": "error"
    },
    {
      "inputs": [],
      "name": "EnforcedPause",
      "type": "error"
    },
    {
      "inputs": [],
      "name": "ExpectedPause",
      "type": "error"
    },
    {
      "inputs": [
        {
          "internalType": "address",
          "name": "owner",
          "type": "address"
        }
      ],
      "name": "OwnableInvalidOwner",
      "type": "error"
    },
    {
      "inputs": [
        {
          "internalType": "address",
          "name": "account",
          "type": "address"
        }
      ],
      "name": "OwnableUnauthorizedAccount",
      "type": "error"
    },
    {
      "inputs": [],
      "name": "ReentrancyGuardReentrantCall",
      "type": "error"
    },
    {
      "inputs": [
        {
          "internalType": "address",
          "name": "token",
          "type": "address"
        }
      ],
      "name": "SafeERC20FailedOperation",
      "type": "error"
    },
    {
      "anonymous": false,
      "inputs": [
        {
          "indexed": true,
          "internalType": "address",
          "name": "owner",
          "type": "address"
        },
        {
          "indexed": true,
          "internalType": "address",
          "name": "approved",
          "type": "address"
        },
        {
          "indexed": true,
          "internalType": "uint256",
          "name": "tokenId",
          "type": "uint256"
        }
      ],
      "name": "Approval",
      "type": "event"
    },
    {
      "anonymous": false,
      "inputs": [
        {
          "indexed": true,
          "internalType": "address",
          "name": "owner",
          "type": "address"
        },
        {
          "indexed": true,
          "internalType": "address",
          "name": "operator",
          "type": "address"
        },
        {
          "indexed": false,
          "internalType": "bool",
          "name": "approved",
          "type": "bool"
        }
      ],
      "name": "ApprovalForAll",
      "type": "event"
    },
    {
      "anonymous": false,
      "inputs": [
        {
          "indexed": true,
          "internalType": "address",
          "name": "minter",
          "type": "address"
        },
        {
          "indexed": true,
          "internalType": "uint256",
          "name": "startId",
          "type": "uint256"
        },
        {
          "indexed": false,
          "internalType": "uint256",
          "name": "count",
          "type": "uint256"
        },
        {
          "indexed": false,
          "internalType": "string",
          "name": "paymentToken",
          "type": "string"
        }
      ],
      "name": "Minted",
      "type": "event"
    },
    {
      "anonymous": false,
      "inputs": [
        {
          "indexed": true,
          "internalType": "address",
          "name": "previousOwner",
          "type": "address"
        },
        {
          "indexed": true,
          "internalType": "address",
          "name": "newOwner",
          "type": "address"
        }
      ],
      "name": "OwnershipTransferred",
      "type": "event"
    },
    {
      "anonymous": false,
      "inputs": [
        {
          "indexed": false,
          "internalType": "address",
          "name": "account",
          "type": "address"
        }
      ],
      "name": "Paused",
      "type": "event"
    },
    {
      "anonymous": false,
      "inputs": [
        {
          "indexed": false,
          "internalType": "string",
          "name": "newURI",
          "type": "string"
        }
      ],
      "name": "PrerevealURIUpdated",
      "type": "event"
    },
    {
      "anonymous": false,
      "inputs": [
        {
          "indexed": false,
          "internalType": "string",
          "name": "newBaseURI",
          "type": "string"
        }
      ],
      "name": "Revealed",
      "type": "event"
    },
    {
      "anonymous": false,
      "inputs": [
        {
          "indexed": false,
          "internalType": "uint256",
          "name": "newTier",
          "type": "uint256"
        }
      ],
      "name": "TierAdvanced",
      "type": "event"
    },
    {
      "anonymous": false,
      "inputs": [
        {
          "indexed": true,
          "internalType": "address",
          "name": "from",
          "type": "address"
        },
        {
          "indexed": true,
          "internalType": "address",
          "name": "to",
          "type": "address"
        },
        {
          "indexed": true,
          "internalType": "uint256",
          "name": "tokenId",
          "type": "uint256"
        }
      ],
      "name": "Transfer",
      "type": "event"
    },
    {
      "anonymous": false,
      "inputs": [
        {
          "indexed": false,
          "internalType": "address",
          "name": "account",
          "type": "address"
        }
      ],
      "name": "Unpaused",
      "type": "event"
    },
    {
      "inputs": [],
      "name": "MAX_MINT_PER_ADDR",
      "outputs": [
        {
          "internalType": "uint256",
          "name": "",
          "type": "uint256"
        }
      ],
      "stateMutability": "view",
      "type": "function"
    },
    {
      "inputs": [],
      "name": "MAX_SUPPLY",
      "outputs": [
        {
          "internalType": "uint256",
          "name": "",
          "type": "uint256"
        }
      ],
      "stateMutability": "view",
      "type": "function"
    },
    {
      "inputs": [
        {
          "internalType": "address",
          "name": "to",
          "type": "address"
        },
        {
          "internalType": "uint256",
          "name": "tokenId",
          "type": "uint256"
        }
      ],
      "name": "approve",
      "outputs": [],
      "stateMutability": "nonpayable",
      "type": "function"
    },
    {
      "inputs": [
        {
          "internalType": "address",
          "name": "owner",
          "type": "address"
        }
      ],
      "name": "balanceOf",
      "outputs": [
        {
          "internalType": "uint256",
          "name": "",
          "type": "uint256"
        }
      ],
      "stateMutability": "view",
      "type": "function"
    },
    {
      "inputs": [],
      "name": "baseURI",
      "outputs": [
        {
          "internalType": "string",
          "name": "",
          "type": "string"
        }
      ],
      "stateMutability": "view",
      "type": "function"
    },
    {
      "inputs": [],
      "name": "currentAnnouncedTier",
      "outputs": [
        {
          "internalType": "uint256",
          "name": "",
          "type": "uint256"
        }
      ],
      "stateMutability": "view",
      "type": "function"
    },
    {
      "inputs": [],
      "name": "currentDegenPrice",
      "outputs": [
        {
          "internalType": "uint256",
          "name": "",
          "type": "uint256"
        }
      ],
      "stateMutability": "view",
      "type": "function"
    },
    {
      "inputs": [],
      "name": "currentEthPrice",
      "outputs": [
        {
          "internalType": "uint256",
          "name": "",
          "type": "uint256"
        }
      ],
      "stateMutability": "view",
      "type": "function"
    },
    {
      "inputs": [],
      "name": "currentMyuPrice",
      "outputs": [
        {
          "internalType": "uint256",
          "name": "",
          "type": "uint256"
        }
      ],
      "stateMutability": "view",
      "type": "function"
    },
    {
      "inputs": [],
      "name": "currentSplit",
      "outputs": [
        {
          "internalType": "uint256",
          "name": "sendPct",
          "type": "uint256"
        },
        {
          "internalType": "uint256",
          "name": "vaultPct",
          "type": "uint256"
        }
      ],
      "stateMutability": "view",
      "type": "function"
    },
    {
      "inputs": [],
      "name": "currentTier",
      "outputs": [
        {
          "internalType": "uint256",
          "name": "",
          "type": "uint256"
        }
      ],
      "stateMutability": "view",
      "type": "function"
    },
    {
      "inputs": [],
      "name": "degenToken",
      "outputs": [
        {
          "internalType": "contract IERC20",
          "name": "",
          "type": "address"
        }
      ],
      "stateMutability": "view",
      "type": "function"
    },
    {
      "inputs": [],
      "name": "degenVault",
      "outputs": [
        {
          "internalType": "address",
          "name": "",
          "type": "address"
        }
      ],
      "stateMutability": "view",
      "type": "function"
    },
    {
      "inputs": [],
      "name": "ethVault",
      "outputs": [
        {
          "internalType": "address",
          "name": "",
          "type": "address"
        }
      ],
      "stateMutability": "view",
      "type": "function"
    },
    {
      "inputs": [
        {
          "internalType": "uint256",
          "name": "tokenId",
          "type": "uint256"
        }
      ],
      "name": "getApproved",
      "outputs": [
        {
          "internalType": "address",
          "name": "",
          "type": "address"
        }
      ],
      "stateMutability": "view",
      "type": "function"
    },
    {
      "inputs": [
        {
          "internalType": "address",
          "name": "user",
          "type": "address"
        }
      ],
      "name": "getMintInfo",
      "outputs": [
        {
          "internalType": "uint256",
          "name": "userMints",
          "type": "uint256"
        },
        {
          "internalType": "uint256",
          "name": "remainingMints",
          "type": "uint256"
        },
        {
          "internalType": "uint256",
          "name": "currentTierNum",
          "type": "uint256"
        },
        {
          "internalType": "uint256",
          "name": "ethPrice",
          "type": "uint256"
        },
        {
          "internalType": "uint256",
          "name": "myuPrice",
          "type": "uint256"
        },
        {
          "internalType": "uint256",
          "name": "degenPrice",
          "type": "uint256"
        },
        {
          "internalType": "uint256",
          "name": "totalMinted",
          "type": "uint256"
        },
        {
          "internalType": "uint256",
          "name": "maxSupply",
          "type": "uint256"
        }
      ],
      "stateMutability": "view",
      "type": "function"
    },
    {
      "inputs": [
        {
          "internalType": "address",
          "name": "owner",
          "type": "address"
        },
        {
          "internalType": "address",
          "name": "operator",
          "type": "address"
        }
      ],
      "name": "isApprovedForAll",
      "outputs": [
        {
          "internalType": "bool",
          "name": "",
          "type": "bool"
        }
      ],
      "stateMutability": "view",
      "type": "function"
    },
    {
      "inputs": [
        {
          "internalType": "uint256",
          "name": "count",
          "type": "uint256"
        }
      ],
      "name": "mintWithDegen",
      "outputs": [],
      "stateMutability": "nonpayable",
      "type": "function"
    },
    {
      "inputs": [
        {
          "internalType": "uint256",
          "name": "count",
          "type": "uint256"
        }
      ],
      "name": "mintWithEth",
      "outputs": [],
      "stateMutability": "payable",
      "type": "function"
    },
    {
      "inputs": [
        {
          "internalType": "uint256",
          "name": "count",
          "type": "uint256"
        }
      ],
      "name": "mintWithMyu",
      "outputs": [],
      "stateMutability": "nonpayable",
      "type": "function"
    },
    {
      "inputs": [
        {
          "internalType": "address",
          "name": "",
          "type": "address"
        }
      ],
      "name": "mintsBy",
      "outputs": [
        {
          "internalType": "uint256",
          "name": "",
          "type": "uint256"
        }
      ],
      "stateMutability": "view",
      "type": "function"
    },
    {
      "inputs": [],
      "name": "myuToken",
      "outputs": [
        {
          "internalType": "contract IERC20",
          "name": "",
          "type": "address"
        }
      ],
      "stateMutability": "view",
      "type": "function"
    },
    {
      "inputs": [],
      "name": "myuVault",
      "outputs": [
        {
          "internalType": "address",
          "name": "",
          "type": "address"
        }
      ],
      "stateMutability": "view",
      "type": "function"
    },
    {
      "inputs": [],
      "name": "name",
      "outputs": [
        {
          "internalType": "string",
          "name": "",
          "type": "string"
        }
      ],
      "stateMutability": "view",
      "type": "function"
    },
    {
      "inputs": [],
      "name": "owner",
      "outputs": [
        {
          "internalType": "address",
          "name": "",
          "type": "address"
        }
      ],
      "stateMutability": "view",
      "type": "function"
    },
    {
      "inputs": [
        {
          "internalType": "uint256",
          "name": "tokenId",
          "type": "uint256"
        }
      ],
      "name": "ownerOf",
      "outputs": [
        {
          "internalType": "address",
          "name": "",
          "type": "address"
        }
      ],
      "stateMutability": "view",
      "type": "function"
    },
    {
      "inputs": [],
      "name": "pause",
      "outputs": [],
      "stateMutability": "nonpayable",
      "type": "function"
    },
    {
      "inputs": [],
      "name": "paused",
      "outputs": [
        {
          "internalType": "bool",
          "name": "",
          "type": "bool"
        }
      ],
      "stateMutability": "view",
      "type": "function"
    },
    {
      "inputs": [],
      "name": "payee",
      "outputs": [
        {
          "internalType": "address",
          "name": "",
          "type": "address"
        }
      ],
      "stateMutability": "view",
      "type": "function"
    },
    {
      "inputs": [],
      "name": "prerevealURI",
      "outputs": [
        {
          "internalType": "string",
          "name": "",
          "type": "string"
        }
      ],
      "stateMutability": "view",
      "type": "function"
    },
    {
      "inputs": [],
      "name": "renounceOwnership",
      "outputs": [],
      "stateMutability": "nonpayable",
      "type": "function"
    },
    {
      "inputs": [
        {
          "internalType": "string",
          "name": "_newBaseURI",
          "type": "string"
        }
      ],
      "name": "reveal",
      "outputs": [],
      "stateMutability": "nonpayable",
      "type": "function"
    },
    {
      "inputs": [],
      "name": "revealed",
      "outputs": [
        {
          "internalType": "bool",
          "name": "",
          "type": "bool"
        }
      ],
      "stateMutability": "view",
      "type": "function"
    },
    {
      "inputs": [
        {
          "internalType": "address",
          "name": "from",
          "type": "address"
        },
        {
          "internalType": "address",
          "name": "to",
          "type": "address"
        },
        {
          "internalType": "uint256",
          "name": "tokenId",
          "type": "uint256"
        }
      ],
      "name": "safeTransferFrom",
      "outputs": [],
      "stateMutability": "nonpayable",
      "type": "function"
    },
    {
      "inputs": [
        {
          "internalType": "address",
          "name": "from",
          "type": "address"
        },
        {
          "internalType": "address",
          "name": "to",
          "type": "address"
        },
        {
          "internalType": "uint256",
          "name": "tokenId",
          "type": "uint256"
        },
        {
          "internalType": "bytes",
          "name": "data",
          "type": "bytes"
        }
      ],
      "name": "safeTransferFrom",
      "outputs": [],
      "stateMutability": "nonpayable",
      "type": "function"
    },
    {
      "inputs": [
        {
          "internalType": "address",
          "name": "operator",
          "type": "address"
        },
        {
          "internalType": "bool",
          "name": "approved",
          "type": "bool"
        }
      ],
      "name": "setApprovalForAll",
      "outputs": [],
      "stateMutability": "nonpayable",
      "type": "function"
    },
    {
      "inputs": [
        {
          "internalType": "bytes4",
          "name": "interfaceId",
          "type": "bytes4"
        }
      ],
      "name": "supportsInterface",
      "outputs": [
        {
          "internalType": "bool",
          "name": "",
          "type": "bool"
        }
      ],
      "stateMutability": "view",
      "type": "function"
    },
    {
      "inputs": [],
      "name": "symbol",
      "outputs": [
        {
          "internalType": "string",
          "name": "",
          "type": "string"
        }
      ],
      "stateMutability": "view",
      "type": "function"
    },
    {
      "inputs": [
        {
          "internalType": "uint256",
          "name": "index",
          "type": "uint256"
        }
      ],
      "name": "tokenByIndex",
      "outputs": [
        {
          "internalType": "uint256",
          "name": "",
          "type": "uint256"
        }
      ],
      "stateMutability": "view",
      "type": "function"
    },
    {
      "inputs": [
        {
          "internalType": "address",
          "name": "owner",
          "type": "address"
        },
        {
          "internalType": "uint256",
          "name": "index",
          "type": "uint256"
        }
      ],
      "name": "tokenOfOwnerByIndex",
      "outputs": [
        {
          "internalType": "uint256",
          "name": "",
          "type": "uint256"
        }
      ],
      "stateMutability": "view",
      "type": "function"
    },
    {
      "inputs": [
        {
          "internalType": "uint256",
          "name": "id",
          "type": "uint256"
        }
      ],
      "name": "tokenURI",
      "outputs": [
        {
          "internalType": "string",
          "name": "",
          "type": "string"
        }
      ],
      "stateMutability": "view",
      "type": "function"
    },
    {
      "inputs": [],
      "name": "totalSupply",
      "outputs": [
        {
          "internalType": "uint256",
          "name": "",
          "type": "uint256"
        }
      ],
      "stateMutability": "view",
      "type": "function"
    },
    {
      "inputs": [
        {
          "internalType": "address",
          "name": "from",
          "type": "address"
        },
        {
          "internalType": "address",
          "name": "to",
          "type": "address"
        },
        {
          "internalType": "uint256",
          "name": "tokenId",
          "type": "uint256"
        }
      ],
      "name": "transferFrom",
      "outputs": [],
      "stateMutability": "nonpayable",
      "type": "function"
    },
    {
      "inputs": [
        {
          "internalType": "address",
          "name": "newOwner",
          "type": "address"
        }
      ],
      "name": "transferOwnership",
      "outputs": [],
      "stateMutability": "nonpayable",
      "type": "function"
    },
    {
      "inputs": [],
      "name": "unpause",
      "outputs": [],
      "stateMutability": "nonpayable",
      "type": "function"
    },
    {
      "inputs": [
        {
          "internalType": "string",
          "name": "_newURI",
          "type": "string"
        }
      ],
      "name": "updatePrerevealURI",
      "outputs": [],
      "stateMutability": "nonpayable",
      "type": "function"
    }
  ],
  "bytecode": "0x61014060405234801561001157600080fd5b50604051615c5e380380615c5e8339818101604052810190610033919061081c565b876040518060400160405280600a81526020017f4d79757472757669616e000000000000000000000000000000000000000000008152506040518060400160405280600a81526020017f4d79757472757669616e0000000000000000000000000000000000000000000081525081600090816100af9190610b0f565b5080600190816100bf9190610b0f565b5050506001600a81905550600073ffffffffffffffffffffffffffffffffffffffff168173ffffffffffffffffffffffffffffffffffffffff160361013c5760006040517f1e4fbdf70000000000000000000000000000000000000000000000000000000081526004016101339190610bf0565b60405180910390fd5b61014b8161054560201b60201c565b50600073ffffffffffffffffffffffffffffffffffffffff168773ffffffffffffffffffffffffffffffffffffffff16036101bb576040517f08c379a00000000000000000000000000000000000000000000000000000000081526004016101b290610c68565b60405180910390fd5b600073ffffffffffffffffffffffffffffffffffffffff168673ffffffffffffffffffffffffffffffffffffffff160361022a576040517f08c379a000000000000000000000000000000000000000000000000000000000815260040161022190610cd4565b60405180910390fd5b600073ffffffffffffffffffffffffffffffffffffffff168573ffffffffffffffffffffffffffffffffffffffff1603610299576040517f08c379a000000000000000000000000000000000000000000000000000000000815260040161029090610d40565b60405180910390fd5b600073ffffffffffffffffffffffffffffffffffffffff168473ffffffffffffffffffffffffffffffffffffffff1603610308576040517f08c379a00000000000000000000000000000000000000000000000000000000081526004016102ff90610dac565b60405180910390fd5b600073ffffffffffffffffffffffffffffffffffffffff168373ffffffffffffffffffffffffffffffffffffffff1603610377576040517f08c379a000000000000000000000000000000000000000000000000000000000815260040161036e90610e18565b60405180910390fd5b600073ffffffffffffffffffffffffffffffffffffffff168273ffffffffffffffffffffffffffffffffffffffff16036103e6576040517f08c379a00000000000000000000000000000000000000000000000000000000081526004016103dd90610e84565b60405180910390fd5b8673ffffffffffffffffffffffffffffffffffffffff1660808173ffffffffffffffffffffffffffffffffffffffff16815250508573ffffffffffffffffffffffffffffffffffffffff1660a08173ffffffffffffffffffffffffffffffffffffffff16815250508473ffffffffffffffffffffffffffffffffffffffff1660c08173ffffffffffffffffffffffffffffffffffffffff16815250508373ffffffffffffffffffffffffffffffffffffffff1660e08173ffffffffffffffffffffffffffffffffffffffff16815250508273ffffffffffffffffffffffffffffffffffffffff166101008173ffffffffffffffffffffffffffffffffffffffff16815250508173ffffffffffffffffffffffffffffffffffffffff166101208173ffffffffffffffffffffffffffffffffffffffff168152505080600f908161052f9190610b0f565b5060016011819055505050505050505050610ea4565b6000600b60009054906101000a900473ffffffffffffffffffffffffffffffffffffffff16905081600b60006101000a81548173ffffffffffffffffffffffffffffffffffffffff021916908373ffffffffffffffffffffffffffffffffffffffff1602179055508173ffffffffffffffffffffffffffffffffffffffff168173ffffffffffffffffffffffffffffffffffffffff167f8be0079c531659141344cd1fd0a4f28419497f9722a3daafe3b4186f6b6457e060405160405180910390a35050565b6000604051905090565b600080fd5b600080fd5b600073ffffffffffffffffffffffffffffffffffffffff82169050919050565b600061064a8261061f565b9050919050565b61065a8161063f565b811461066557600080fd5b50565b60008151905061067781610651565b92915050565b60006106888261063f565b9050919050565b6106988161067d565b81146106a357600080fd5b50565b6000815190506106b58161068f565b92915050565b600080fd5b600080fd5b6000601f19601f8301169050919050565b7f4e487b7100000000000000000000000000000000000000000000000000000000600052604160045260246000fd5b61070e826106c5565b810181811067ffffffffffffffff8211171561072d5761072c6106d6565b5b80604052505050565b600061074061060b565b905061074c8282610705565b919050565b600067ffffffffffffffff82111561076c5761076b6106d6565b5b610775826106c5565b9050602081019050919050565b60005b838110156107a0578082015181840152602081019050610785565b60008484015250505050565b60006107bf6107ba84610751565b610736565b9050828152602081018484840111156107db576107da6106c0565b5b6107e6848285610782565b509392505050565b600082601f830112610803576108026106bb565b5b81516108138482602086016107ac565b91505092915050565b600080600080600080600080610100898b03121561083d5761083c610615565b5b600061084b8b828c01610668565b985050602061085c8b828c01610668565b975050604061086d8b828c01610668565b965050606061087e8b828c016106a6565b955050608061088f8b828c016106a6565b94505060a06108a08b828c01610668565b93505060c06108b18b828c01610668565b92505060e089015167ffffffffffffffff8111156108d2576108d161061a565b5b6108de8b828c016107ee565b9150509295985092959890939650565b600081519050919050565b7f4e487b7100000000000000000000000000000000000000000000000000000000600052602260045260246000fd5b6000600282049050600182168061094057607f821691505b602082108103610953576109526108f9565b5b50919050565b60008190508160005260206000209050919050565b60006020601f8301049050919050565b600082821b905092915050565b6000600883026109bb7fffffffffffffffffffffffffffffffffffffffffffffffffffffffffffffffff8261097e565b6109c5868361097e565b95508019841693508086168417925050509392505050565b6000819050919050565b6000819050919050565b6000610a0c610a07610a02846109dd565b6109e7565b6109dd565b9050919050565b6000819050919050565b610a26836109f1565b610a3a610a3282610a13565b84845461098b565b825550505050565b600090565b610a4f610a42565b610a5a818484610a1d565b505050565b5b81811015610a7e57610a73600082610a47565b600181019050610a60565b5050565b601f821115610ac357610a9481610959565b610a9d8461096e565b81016020851015610aac578190505b610ac0610ab88561096e565b830182610a5f565b50505b505050565b600082821c905092915050565b6000610ae660001984600802610ac8565b1980831691505092915050565b6000610aff8383610ad5565b9150826002028217905092915050565b610b18826108ee565b67ffffffffffffffff811115610b3157610b306106d6565b5b610b3b8254610928565b610b46828285610a82565b600060209050601f831160018114610b795760008415610b67578287015190505b610b718582610af3565b865550610bd9565b601f198416610b8786610959565b60005b82811015610baf57848901518255600182019150602085019450602081019050610b8a565b86831015610bcc5784890151610bc8601f891682610ad5565b8355505b6001600288020188555050505b505050505050565b610bea8161063f565b82525050565b6000602082019050610c056000830184610be1565b92915050565b600082825260208201905092915050565b7f496e76616c696420706179656500000000000000000000000000000000000000600082015250565b6000610c52600d83610c0b565b9150610c5d82610c1c565b602082019050919050565b60006020820190508181036000830152610c8181610c45565b9050919050565b7f496e76616c6964206574685661756c7400000000000000000000000000000000600082015250565b6000610cbe601083610c0b565b9150610cc982610c88565b602082019050919050565b60006020820190508181036000830152610ced81610cb1565b9050919050565b7f496e76616c6964206d7975546f6b656e00000000000000000000000000000000600082015250565b6000610d2a601083610c0b565b9150610d3582610cf4565b602082019050919050565b60006020820190508181036000830152610d5981610d1d565b9050919050565b7f496e76616c696420646567656e546f6b656e0000000000000000000000000000600082015250565b6000610d96601283610c0b565b9150610da182610d60565b602082019050919050565b60006020820190508181036000830152610dc581610d89565b9050919050565b7f496e76616c6964206d79755661756c7400000000000000000000000000000000600082015250565b6000610e02601083610c0b565b9150610e0d82610dcc565b602082019050919050565b60006020820190508181036000830152610e3181610df5565b9050919050565b7f496e76616c696420646567656e5661756c740000000000000000000000000000600082015250565b6000610e6e601283610c0b565b9150610e7982610e38565b602082019050919050565b60006020820190508181036000830152610e9d81610e61565b9050919050565b60805160a05160c05160e0516101005161012051614d25610f39600039600081816110ec0152611ff4015260008181610bef0152611b9d0152600081816110a10152818161110e0152611e7b015260008181610ba401528181610c110152612132015260008181610ee401526116f9015260008181610b8201528181610e180152818161107f0152611b730152614d256000f3fe60806040526004361061027d5760003560e01c80636c0360eb1161014f578063b3b829fc116100c1578063d62280b21161007a578063d62280b214610987578063d679677a146109b2578063d9540d94146109dd578063e985e9c514610a08578063f2fde38b14610a45578063fb1dfafa14610a6e5761027d565b8063b3b829fc1461085b578063b7c7d1ba14610886578063b7d08c5c146108b2578063b88d4fde146108f6578063c87b56dd1461091f578063d53efa9d1461095c5761027d565b80638da5cb5b116101135780638da5cb5b1461075b57806395d89b4114610786578063a22cb465146107b1578063ac48eb28146107da578063ae90b21314610805578063b020769d146108305761027d565b80636c0360eb1461069a57806370a08231146106c5578063715018a6146107025780638456cb591461071957806389b60c15146107305761027d565b80632f745c59116101f35780634f6ccce7116101ac5780634f6ccce71461057657806351830227146105b357806358cdb16c146105de5780635a20329c146106075780635c975abb146106325780636352211e1461065d5761027d565b80632f745c591461046857806332cb6b0c146104a557806336866038146104d05780633f4ba83a1461050d57806342842e0e146105245780634c2612471461054d5761027d565b80630df10da9116102455780630df10da914610379578063161548621461039557806318160ddd146103c05780631c42ecca146103eb5780631cd732c11461041457806323b872dd1461043f5761027d565b806301ffc9a71461028257806306f6e14f146102bf57806306fdde03146102e8578063081812fc14610313578063095ea7b314610350575b600080fd5b34801561028e57600080fd5b506102a960048036038101906102a49190613976565b610a99565b6040516102b691906139be565b60405180910390f35b3480156102cb57600080fd5b506102e660048036038101906102e19190613a0f565b610b13565b005b3480156102f457600080fd5b506102fd610ca5565b60405161030a9190613acc565b60405180910390f35b34801561031f57600080fd5b5061033a60048036038101906103359190613a0f565b610d37565b6040516103479190613b2f565b60405180910390f35b34801561035c57600080fd5b5061037760048036038101906103729190613b76565b610d53565b005b610393600480360381019061038e9190613a0f565b610d69565b005b3480156103a157600080fd5b506103aa610ffd565b6040516103b79190613bc5565b60405180910390f35b3480156103cc57600080fd5b506103d5611003565b6040516103e29190613bc5565b60405180910390f35b3480156103f757600080fd5b50610412600480360381019061040d9190613a0f565b611010565b005b34801561042057600080fd5b506104296111a2565b6040516104369190613bc5565b60405180910390f35b34801561044b57600080fd5b5061046660048036038101906104619190613be0565b61127e565b005b34801561047457600080fd5b5061048f600480360381019061048a9190613b76565b611380565b60405161049c9190613bc5565b60405180910390f35b3480156104b157600080fd5b506104ba611429565b6040516104c79190613bc5565b60405180910390f35b3480156104dc57600080fd5b506104f760048036038101906104f29190613c33565b61142f565b6040516105049190613bc5565b60405180910390f35b34801561051957600080fd5b50610522611447565b005b34801561053057600080fd5b5061054b60048036038101906105469190613be0565b611459565b005b34801561055957600080fd5b50610574600480360381019061056f9190613cc5565b611479565b005b34801561058257600080fd5b5061059d60048036038101906105989190613a0f565b611581565b6040516105aa9190613bc5565b60405180910390f35b3480156105bf57600080fd5b506105c86115f7565b6040516105d591906139be565b60405180910390f35b3480156105ea57600080fd5b5061060560048036038101906106009190613cc5565b61160a565b005b34801561061357600080fd5b5061061c6116f7565b6040516106299190613b2f565b60405180910390f35b34801561063e57600080fd5b5061064761171b565b60405161065491906139be565b60405180910390f35b34801561066957600080fd5b50610684600480360381019061067f9190613a0f565b611732565b6040516106919190613b2f565b60405180910390f35b3480156106a657600080fd5b506106af611744565b6040516106bc9190613acc565b60405180910390f35b3480156106d157600080fd5b506106ec60048036038101906106e79190613c33565b6117d2565b6040516106f99190613bc5565b60405180910390f35b34801561070e57600080fd5b5061071761188c565b005b34801561072557600080fd5b5061072e6118a0565b005b34801561073c57600080fd5b506107456118b2565b6040516107529190613bc5565b60405180910390f35b34801561076757600080fd5b506107706119b1565b60405161077d9190613b2f565b60405180910390f35b34801561079257600080fd5b5061079b6119db565b6040516107a89190613acc565b60405180910390f35b3480156107bd57600080fd5b506107d860048036038101906107d39190613d3e565b611a6d565b005b3480156107e657600080fd5b506107ef611a83565b6040516107fc9190613bc5565b60405180910390f35b34801561081157600080fd5b5061081a611b71565b6040516108279190613b2f565b60405180910390f35b34801561083c57600080fd5b50610845611b95565b6040516108529190613bc5565b60405180910390f35b34801561086757600080fd5b50610870611b9b565b60405161087d9190613b2f565b60405180910390f35b34801561089257600080fd5b5061089b611bbf565b6040516108a9929190613d7e565b60405180910390f35b3480156108be57600080fd5b506108d960048036038101906108d49190613c33565b611c8b565b6040516108ed989796959493929190613da7565b60405180910390f35b34801561090257600080fd5b5061091d60048036038101906109189190613f55565b611d2b565b005b34801561092b57600080fd5b5061094660048036038101906109419190613a0f565b611d50565b6040516109539190613acc565b60405180910390f35b34801561096857600080fd5b50610971611e79565b60405161097e9190614037565b60405180910390f35b34801561099357600080fd5b5061099c611e9d565b6040516109a99190613acc565b60405180910390f35b3480156109be57600080fd5b506109c7611f2b565b6040516109d49190613bc5565b60405180910390f35b3480156109e957600080fd5b506109f2611ff2565b6040516109ff9190613b2f565b60405180910390f35b348015610a1457600080fd5b50610a2f6004803603810190610a2a9190614052565b612016565b604051610a3c91906139be565b60405180910390f35b348015610a5157600080fd5b50610a6c6004803603810190610a679190613c33565b6120aa565b005b348015610a7a57600080fd5b50610a83612130565b604051610a909190614037565b60405180910390f35b60007f780e9d63000000000000000000000000000000000000000000000000000000007bffffffffffffffffffffffffffffffffffffffffffffffffffffffff1916827bffffffffffffffffffffffffffffffffffffffffffffffffffffffff19161480610b0c5750610b0b82612154565b5b9050919050565b610b1b612236565b610b2361227c565b610b2c816122bd565b600081610b376118b2565b610b4191906140c1565b90506000610b4d611bbf565b509050600060648284610b6091906140c1565b610b6a9190614132565b905060008184610b7a9190614163565b9050610be9337f0000000000000000000000000000000000000000000000000000000000000000847f000000000000000000000000000000000000000000000000000000000000000073ffffffffffffffffffffffffffffffffffffffff166123e9909392919063ffffffff16565b610c56337f0000000000000000000000000000000000000000000000000000000000000000837f000000000000000000000000000000000000000000000000000000000000000073ffffffffffffffffffffffffffffffffffffffff166123e9909392919063ffffffff16565b610c9633866040518060400160405280600381526020017f4d5955000000000000000000000000000000000000000000000000000000000081525061246b565b50505050610ca2612564565b50565b606060008054610cb4906141c6565b80601f0160208091040260200160405190810160405280929190818152602001828054610ce0906141c6565b8015610d2d5780601f10610d0257610100808354040283529160200191610d2d565b820191906000526020600020905b815481529060010190602001808311610d1057829003601f168201915b5050505050905090565b6000610d428261256e565b50610d4c826125f6565b9050919050565b610d658282610d60612633565b61263b565b5050565b610d71612236565b610d7961227c565b610d82816122bd565b600081610d8d6111a2565b610d9791906140c1565b9050803414610ddb576040517f08c379a0000000000000000000000000000000000000000000000000000000008152600401610dd290614243565b60405180910390fd5b6000610de5611bbf565b509050600060648284610df891906140c1565b610e029190614132565b905060008184610e129190614163565b905060007f000000000000000000000000000000000000000000000000000000000000000073ffffffffffffffffffffffffffffffffffffffff1683604051610e5a90614294565b60006040518083038185875af1925050503d8060008114610e97576040519150601f19603f3d011682016040523d82523d6000602084013e610e9c565b606091505b5050905080610ee0576040517f08c379a0000000000000000000000000000000000000000000000000000000008152600401610ed7906142f5565b60405180910390fd5b60007f000000000000000000000000000000000000000000000000000000000000000073ffffffffffffffffffffffffffffffffffffffff1683604051610f2690614294565b60006040518083038185875af1925050503d8060008114610f63576040519150601f19603f3d011682016040523d82523d6000602084013e610f68565b606091505b5050905080610fac576040517f08c379a0000000000000000000000000000000000000000000000000000000008152600401610fa390614361565b60405180910390fd5b610fec33886040518060400160405280600381526020017f455448000000000000000000000000000000000000000000000000000000000081525061246b565b505050505050610ffa612564565b50565b6101f581565b6000600880549050905090565b611018612236565b61102061227c565b611029816122bd565b600081611034611a83565b61103e91906140c1565b9050600061104a611bbf565b50905060006064828461105d91906140c1565b6110679190614132565b9050600081846110779190614163565b90506110e6337f0000000000000000000000000000000000000000000000000000000000000000847f000000000000000000000000000000000000000000000000000000000000000073ffffffffffffffffffffffffffffffffffffffff166123e9909392919063ffffffff16565b611153337f0000000000000000000000000000000000000000000000000000000000000000837f000000000000000000000000000000000000000000000000000000000000000073ffffffffffffffffffffffffffffffffffffffff166123e9909392919063ffffffff16565b61119333866040518060400160405280600581526020017f444547454e00000000000000000000000000000000000000000000000000000081525061246b565b5050505061119f612564565b50565b6000806111ad611f2b565b9050600081036111c7576602738d24e5200091505061127b565b600181036111df5766025844398d400091505061127b565b600281036111f75766023cfb4e35600091505061127b565b6003810361120f57660221b262dd800091505061127b565b60048103611227576601f438daa0600091505061127b565b6005810361123f576601c6bf5263400091505061127b565b600681036112575766019945ca26200091505061127b565b6007810361126f5766016bcc41e9000091505061127b565b66014f9a81ec10009150505b90565b600073ffffffffffffffffffffffffffffffffffffffff168273ffffffffffffffffffffffffffffffffffffffff16036112f05760006040517f64a0ae920000000000000000000000000000000000000000000000000000000081526004016112e79190613b2f565b60405180910390fd5b600061130483836112ff612633565b61264d565b90508373ffffffffffffffffffffffffffffffffffffffff168173ffffffffffffffffffffffffffffffffffffffff161461137a578382826040517f64283d7b00000000000000000000000000000000000000000000000000000000815260040161137193929190614381565b60405180910390fd5b50505050565b600061138b836117d2565b82106113d05782826040517fa57d13dc0000000000000000000000000000000000000000000000000000000081526004016113c79291906143b8565b60405180910390fd5b600660008473ffffffffffffffffffffffffffffffffffffffff1673ffffffffffffffffffffffffffffffffffffffff168152602001908152602001600020600083815260200190815260200160002054905092915050565b614e2081565b600c6020528060005260406000206000915090505481565b61144f61276a565b6114576127f1565b565b61147483838360405180602001604052806000815250611d2b565b505050565b61148161276a565b600d60009054906101000a900460ff16156114d1576040517f08c379a00000000000000000000000000000000000000000000000000000000081526004016114c89061442d565b60405180910390fd5b60008282905011611517576040517f08c379a000000000000000000000000000000000000000000000000000000000815260040161150e90614499565b60405180910390fd5b8181600e9182611528929190614666565b506001600d60006101000a81548160ff0219169083151502179055507f34f25fe82e04b6b4bb3440737372e9d5d8e7a6a2b12da5dc4abead2c0b544ad98282604051611575929190614763565b60405180910390a15050565b600061158b611003565b82106115d1576000826040517fa57d13dc0000000000000000000000000000000000000000000000000000000081526004016115c89291906143b8565b60405180910390fd5b600882815481106115e5576115e4614787565b5b90600052602060002001549050919050565b600d60009054906101000a900460ff1681565b61161261276a565b600d60009054906101000a900460ff1615611662576040517f08c379a00000000000000000000000000000000000000000000000000000000081526004016116599061442d565b60405180910390fd5b600082829050116116a8576040517f08c379a000000000000000000000000000000000000000000000000000000000815260040161169f90614499565b60405180910390fd5b8181600f91826116b9929190614666565b507f2afdd632696cbf1ca868eb2b9cffd5e02c451d4c1222e03be2ae86d52920509082826040516116eb929190614763565b60405180910390a15050565b7f000000000000000000000000000000000000000000000000000000000000000081565b6000600b60149054906101000a900460ff16905090565b600061173d8261256e565b9050919050565b600e8054611751906141c6565b80601f016020809104026020016040519081016040528092919081815260200182805461177d906141c6565b80156117ca5780601f1061179f576101008083540402835291602001916117ca565b820191906000526020600020905b8154815290600101906020018083116117ad57829003601f168201915b505050505081565b60008073ffffffffffffffffffffffffffffffffffffffff168273ffffffffffffffffffffffffffffffffffffffff16036118455760006040517f89c62b6400000000000000000000000000000000000000000000000000000000815260040161183c9190613b2f565b60405180910390fd5b600360008373ffffffffffffffffffffffffffffffffffffffff1673ffffffffffffffffffffffffffffffffffffffff168152602001908152602001600020549050919050565b61189461276a565b61189e6000612854565b565b6118a861276a565b6118b061291a565b565b6000806118bd611f2b565b9050600081036118db576a0422ca8b0a00a4250000009150506119ae565b600181036118f7576a03b8e97d229a2d548000009150506119ae565b60028103611913576a034f086f3b33b6840000009150506119ae565b6003810361192f576a02e5276153cd3fb38000009150506119ae565b6004810361194b576a027b46536c66c8e30000009150506119ae565b60058103611967576a02116545850052128000009150506119ae565b60068103611983576a01a784379d99db420000009150506119ae565b6007810361199f576a013da329b63364718000009150506119ae565b69d3c21bcecceda10000009150505b90565b6000600b60009054906101000a900473ffffffffffffffffffffffffffffffffffffffff16905090565b6060600180546119ea906141c6565b80601f0160208091040260200160405190810160405280929190818152602001828054611a16906141c6565b8015611a635780601f10611a3857610100808354040283529160200191611a63565b820191906000526020600020905b815481529060010190602001808311611a4657829003601f168201915b5050505050905090565b611a7f611a78612633565b838361297d565b5050565b600080611a8e611f2b565b905060008103611aaa57681c75d6ae6e48140000915050611b6e565b60018103611ac457681b6048686534440000915050611b6e565b60028103611ade576819bff2ff57968c0000915050611b6e565b60038103611af8576818650127cc3dc80000915050611b6e565b60048103611b12576816c4abbebea0100000915050611b6e565b60058103611b2c57681569b9e733474c0000915050611b6e565b60068103611b46576813c9647e25a9940000915050611b6e565b60078103611b60576812f939c99edab80000915050611b6e565b68120d4da7b0bd1400009150505b90565b7f000000000000000000000000000000000000000000000000000000000000000081565b60105481565b7f000000000000000000000000000000000000000000000000000000000000000081565b6000806000611bcc611f2b565b905060008103611be3576032809250925050611c87565b60018103611bf957602d60379250925050611c87565b60028103611c0f576028603c9250925050611c87565b60038103611c2557602360419250925050611c87565b60048103611c3b57601e60469250925050611c87565b60058103611c51576019604b9250925050611c87565b60068103611c6757601460509250925050611c87565b60078103611c7d57600f60559250925050611c87565b600a605a92509250505b9091565b600080600080600080600080600c60008a73ffffffffffffffffffffffffffffffffffffffff1673ffffffffffffffffffffffffffffffffffffffff168152602001908152602001600020549750876101f5611ce79190614163565b9650611cf1611f2b565b9550611cfb6111a2565b9450611d056118b2565b9350611d0f611a83565b9250611d19611003565b9150614e209050919395975091939597565b611d3684848461127e565b611d4a611d41612633565b85858585612aec565b50505050565b6060600082118015611d63575060115482105b611da2576040517f08c379a0000000000000000000000000000000000000000000000000000000008152600401611d9990614802565b60405180910390fd5b600d60009054906101000a900460ff16611e4657600f8054611dc3906141c6565b80601f0160208091040260200160405190810160405280929190818152602001828054611def906141c6565b8015611e3c5780601f10611e1157610100808354040283529160200191611e3c565b820191906000526020600020905b815481529060010190602001808311611e1f57829003601f168201915b5050505050611e72565b600e611e5183612c9d565b604051602001611e6292919061492d565b6040516020818303038152906040525b9050919050565b7f000000000000000000000000000000000000000000000000000000000000000081565b600f8054611eaa906141c6565b80601f0160208091040260200160405190810160405280929190818152602001828054611ed6906141c6565b8015611f235780601f10611ef857610100808354040283529160200191611f23565b820191906000526020600020905b815481529060010190602001808311611f0657829003601f168201915b505050505081565b600080614e206064611f3b611003565b611f4591906140c1565b611f4f9190614132565b9050600a811015611f64576000915050611fef565b6014811015611f77576001915050611fef565b601e811015611f8a576002915050611fef565b6028811015611f9d576003915050611fef565b6032811015611fb0576004915050611fef565b603c811015611fc3576005915050611fef565b6046811015611fd6576006915050611fef565b6050811015611fe9576007915050611fef565b60089150505b90565b7f000000000000000000000000000000000000000000000000000000000000000081565b6000600560008473ffffffffffffffffffffffffffffffffffffffff1673ffffffffffffffffffffffffffffffffffffffff16815260200190815260200160002060008373ffffffffffffffffffffffffffffffffffffffff1673ffffffffffffffffffffffffffffffffffffffff16815260200190815260200160002060009054906101000a900460ff16905092915050565b6120b261276a565b600073ffffffffffffffffffffffffffffffffffffffff168173ffffffffffffffffffffffffffffffffffffffff16036121245760006040517f1e4fbdf700000000000000000000000000000000000000000000000000000000815260040161211b9190613b2f565b60405180910390fd5b61212d81612854565b50565b7f000000000000000000000000000000000000000000000000000000000000000081565b60007f80ac58cd000000000000000000000000000000000000000000000000000000007bffffffffffffffffffffffffffffffffffffffffffffffffffffffff1916827bffffffffffffffffffffffffffffffffffffffffffffffffffffffff1916148061221f57507f5b5e139f000000000000000000000000000000000000000000000000000000007bffffffffffffffffffffffffffffffffffffffffffffffffffffffff1916827bffffffffffffffffffffffffffffffffffffffffffffffffffffffff1916145b8061222f575061222e82612dfa565b5b9050919050565b6002600a5403612272576040517f3ee5aeb500000000000000000000000000000000000000000000000000000000815260040160405180910390fd5b6002600a81905550565b61228461171b565b156122bb576040517fd93c066500000000000000000000000000000000000000000000000000000000815260040160405180910390fd5b565b60008111612300576040517f08c379a00000000000000000000000000000000000000000000000000000000081526004016122f7906149a8565b60405180910390fd5b614e208161230c611003565b61231691906149c8565b1115612357576040517f08c379a000000000000000000000000000000000000000000000000000000000815260040161234e90614a48565b60405180910390fd5b6101f581600c60003373ffffffffffffffffffffffffffffffffffffffff1673ffffffffffffffffffffffffffffffffffffffff168152602001908152602001600020546123a591906149c8565b11156123e6576040517f08c379a00000000000000000000000000000000000000000000000000000000081526004016123dd90614ab4565b60405180910390fd5b50565b612465848573ffffffffffffffffffffffffffffffffffffffff166323b872dd86868660405160240161241e93929190614ad4565b604051602081830303815290604052915060e01b6020820180517bffffffffffffffffffffffffffffffffffffffffffffffffffffffff8381831617835250505050612e64565b50505050565b6000601154905060005b838110156124ae5761248985601154612f06565b6011600081548092919061249c90614b0b565b91905055508080600101915050612475565b5082600c60008673ffffffffffffffffffffffffffffffffffffffff1673ffffffffffffffffffffffffffffffffffffffff16815260200190815260200160002060008282546124fe91906149c8565b92505081905550808473ffffffffffffffffffffffffffffffffffffffff167ff2cb5e52049d127ad1c335f1cc25f2fdbc911bec1beb2611f4c1e8b1c274d4b4858560405161254e929190614b53565b60405180910390a361255e612f24565b50505050565b6001600a81905550565b60008061257a83612f7c565b9050600073ffffffffffffffffffffffffffffffffffffffff168173ffffffffffffffffffffffffffffffffffffffff16036125ed57826040517f7e2732890000000000000000000000000000000000000000000000000000000081526004016125e49190613bc5565b60405180910390fd5b80915050919050565b60006004600083815260200190815260200160002060009054906101000a900473ffffffffffffffffffffffffffffffffffffffff169050919050565b600033905090565b6126488383836001612fb9565b505050565b60008061265b85858561317e565b9050600073ffffffffffffffffffffffffffffffffffffffff168173ffffffffffffffffffffffffffffffffffffffff160361269f5761269a84613398565b6126de565b8473ffffffffffffffffffffffffffffffffffffffff168173ffffffffffffffffffffffffffffffffffffffff16146126dd576126dc81856133e1565b5b5b600073ffffffffffffffffffffffffffffffffffffffff168573ffffffffffffffffffffffffffffffffffffffff16036127205761271b846134cc565b61275f565b8473ffffffffffffffffffffffffffffffffffffffff168173ffffffffffffffffffffffffffffffffffffffff161461275e5761275d858561359d565b5b5b809150509392505050565b612772612633565b73ffffffffffffffffffffffffffffffffffffffff166127906119b1565b73ffffffffffffffffffffffffffffffffffffffff16146127ef576127b3612633565b6040517f118cdaa70000000000000000000000000000000000000000000000000000000081526004016127e69190613b2f565b60405180910390fd5b565b6127f9613628565b6000600b60146101000a81548160ff0219169083151502179055507f5db9ee0a495bf2e6ff9c91a7834c1ba4fdd244a5e8aa4e537bd38aeae4b073aa61283d612633565b60405161284a9190613b2f565b60405180910390a1565b6000600b60009054906101000a900473ffffffffffffffffffffffffffffffffffffffff16905081600b60006101000a81548173ffffffffffffffffffffffffffffffffffffffff021916908373ffffffffffffffffffffffffffffffffffffffff1602179055508173ffffffffffffffffffffffffffffffffffffffff168173ffffffffffffffffffffffffffffffffffffffff167f8be0079c531659141344cd1fd0a4f28419497f9722a3daafe3b4186f6b6457e060405160405180910390a35050565b61292261227c565b6001600b60146101000a81548160ff0219169083151502179055507f62e78cea01bee320cd4e420270b5ea74000d11b0c9f74754ebdbfc544b05a258612966612633565b6040516129739190613b2f565b60405180910390a1565b600073ffffffffffffffffffffffffffffffffffffffff168273ffffffffffffffffffffffffffffffffffffffff16036129ee57816040517f5b08ba180000000000000000000000000000000000000000000000000000000081526004016129e59190613b2f565b60405180910390fd5b80600560008573ffffffffffffffffffffffffffffffffffffffff1673ffffffffffffffffffffffffffffffffffffffff16815260200190815260200160002060008473ffffffffffffffffffffffffffffffffffffffff1673ffffffffffffffffffffffffffffffffffffffff16815260200190815260200160002060006101000a81548160ff0219169083151502179055508173ffffffffffffffffffffffffffffffffffffffff168373ffffffffffffffffffffffffffffffffffffffff167f17307eab39ab6107e8899845ad3d59bd9653f200f220920489ca2b5937696c3183604051612adf91906139be565b60405180910390a3505050565b60008373ffffffffffffffffffffffffffffffffffffffff163b1115612c96578273ffffffffffffffffffffffffffffffffffffffff1663150b7a02868685856040518563ffffffff1660e01b8152600401612b4b9493929190614bd8565b6020604051808303816000875af1925050508015612b8757506040513d601f19601f82011682018060405250810190612b849190614c39565b60015b612c0b573d8060008114612bb7576040519150601f19603f3d011682016040523d82523d6000602084013e612bbc565b606091505b506000815103612c0357836040517f64a0ae92000000000000000000000000000000000000000000000000000000008152600401612bfa9190613b2f565b60405180910390fd5b805181602001fd5b63150b7a0260e01b7bffffffffffffffffffffffffffffffffffffffffffffffffffffffff1916817bffffffffffffffffffffffffffffffffffffffffffffffffffffffff191614612c9457836040517f64a0ae92000000000000000000000000000000000000000000000000000000008152600401612c8b9190613b2f565b60405180910390fd5b505b5050505050565b606060008203612ce4576040518060400160405280600181526020017f30000000000000000000000000000000000000000000000000000000000000008152509050612df5565b600082905060005b60008214612d16578080612cff90614b0b565b915050600a82612d0f9190614132565b9150612cec565b60008167ffffffffffffffff811115612d3257612d31613e2a565b5b6040519080825280601f01601f191660200182016040528015612d645781602001600182028036833780820191505090505b5090505b60008514612dee57600a85612d7d9190614c66565b6030612d8991906149c8565b60f81b8183612d9790614c97565b93508381518110612dab57612daa614787565b5b60200101907effffffffffffffffffffffffffffffffffffffffffffffffffffffffffffff1916908160001a905350600a85612de79190614132565b9450612d68565b8093505050505b919050565b60007f01ffc9a7000000000000000000000000000000000000000000000000000000007bffffffffffffffffffffffffffffffffffffffffffffffffffffffff1916827bffffffffffffffffffffffffffffffffffffffffffffffffffffffff1916149050919050565b600080602060008451602086016000885af180612e87576040513d6000823e3d81fd5b3d925060005191505060008214612ea2576001811415612ebe565b60008473ffffffffffffffffffffffffffffffffffffffff163b145b15612f0057836040517f5274afe7000000000000000000000000000000000000000000000000000000008152600401612ef79190613b2f565b60405180910390fd5b50505050565b612f20828260405180602001604052806000815250613668565b5050565b6000612f2e611f2b565b9050601054811115612f7957806010819055507f090f7e387fabb2590e2f29461b774eca66b867087836928a3723f484be328e4381604051612f709190613bc5565b60405180910390a15b50565b60006002600083815260200190815260200160002060009054906101000a900473ffffffffffffffffffffffffffffffffffffffff169050919050565b8080612ff25750600073ffffffffffffffffffffffffffffffffffffffff168273ffffffffffffffffffffffffffffffffffffffff1614155b156131265760006130028461256e565b9050600073ffffffffffffffffffffffffffffffffffffffff168373ffffffffffffffffffffffffffffffffffffffff161415801561306d57508273ffffffffffffffffffffffffffffffffffffffff168173ffffffffffffffffffffffffffffffffffffffff1614155b8015613080575061307e8184612016565b155b156130c257826040517fa9fbf51f0000000000000000000000000000000000000000000000000000000081526004016130b99190613b2f565b60405180910390fd5b811561312457838573ffffffffffffffffffffffffffffffffffffffff168273ffffffffffffffffffffffffffffffffffffffff167f8c5be1e5ebec7d5bd14f71427d1e84f3dd0314c0f7b2291e5b200ac8c7c3b92560405160405180910390a45b505b836004600085815260200190815260200160002060006101000a81548173ffffffffffffffffffffffffffffffffffffffff021916908373ffffffffffffffffffffffffffffffffffffffff16021790555050505050565b60008061318a84612f7c565b9050600073ffffffffffffffffffffffffffffffffffffffff168373ffffffffffffffffffffffffffffffffffffffff16146131cc576131cb81848661368c565b5b600073ffffffffffffffffffffffffffffffffffffffff168173ffffffffffffffffffffffffffffffffffffffff161461325d5761320e600085600080612fb9565b6001600360008373ffffffffffffffffffffffffffffffffffffffff1673ffffffffffffffffffffffffffffffffffffffff168152602001908152602001600020600082825403925050819055505b600073ffffffffffffffffffffffffffffffffffffffff168573ffffffffffffffffffffffffffffffffffffffff16146132e0576001600360008773ffffffffffffffffffffffffffffffffffffffff1673ffffffffffffffffffffffffffffffffffffffff168152602001908152602001600020600082825401925050819055505b846002600086815260200190815260200160002060006101000a81548173ffffffffffffffffffffffffffffffffffffffff021916908373ffffffffffffffffffffffffffffffffffffffff160217905550838573ffffffffffffffffffffffffffffffffffffffff168273ffffffffffffffffffffffffffffffffffffffff167fddf252ad1be2c89b69c2b068fc378daa952ba7f163c4a11628f55a4df523b3ef60405160405180910390a4809150509392505050565b6008805490506009600083815260200190815260200160002081905550600881908060018154018082558091505060019003906000526020600020016000909190919091505550565b60006133ec836117d2565b90506000600760008481526020019081526020016000205490506000600660008673ffffffffffffffffffffffffffffffffffffffff1673ffffffffffffffffffffffffffffffffffffffff16815260200190815260200160002090508282146134985760008160008581526020019081526020016000205490508082600085815260200190815260200160002081905550826007600083815260200190815260200160002081905550505b6007600085815260200190815260200160002060009055806000848152602001908152602001600020600090555050505050565b600060016008805490506134e09190614163565b90506000600960008481526020019081526020016000205490506000600883815481106135105761350f614787565b5b90600052602060002001549050806008838154811061353257613531614787565b5b90600052602060002001819055508160096000838152602001908152602001600020819055506009600085815260200190815260200160002060009055600880548061358157613580614cc0565b5b6001900381819060005260206000200160009055905550505050565b600060016135aa846117d2565b6135b49190614163565b905081600660008573ffffffffffffffffffffffffffffffffffffffff1673ffffffffffffffffffffffffffffffffffffffff168152602001908152602001600020600083815260200190815260200160002081905550806007600084815260200190815260200160002081905550505050565b61363061171b565b613666576040517f8dfc202b00000000000000000000000000000000000000000000000000000000815260040160405180910390fd5b565b6136728383613750565b61368761367d612633565b6000858585612aec565b505050565b613697838383613849565b61374b57600073ffffffffffffffffffffffffffffffffffffffff168373ffffffffffffffffffffffffffffffffffffffff160361370c57806040517f7e2732890000000000000000000000000000000000000000000000000000000081526004016137039190613bc5565b60405180910390fd5b81816040517f177e802f0000000000000000000000000000000000000000000000000000000081526004016137429291906143b8565b60405180910390fd5b505050565b600073ffffffffffffffffffffffffffffffffffffffff168273ffffffffffffffffffffffffffffffffffffffff16036137c25760006040517f64a0ae920000000000000000000000000000000000000000000000000000000081526004016137b99190613b2f565b60405180910390fd5b60006137d08383600061264d565b9050600073ffffffffffffffffffffffffffffffffffffffff168173ffffffffffffffffffffffffffffffffffffffff16146138445760006040517f73c6ac6e00000000000000000000000000000000000000000000000000000000815260040161383b9190613b2f565b60405180910390fd5b505050565b60008073ffffffffffffffffffffffffffffffffffffffff168373ffffffffffffffffffffffffffffffffffffffff161415801561390157508273ffffffffffffffffffffffffffffffffffffffff168473ffffffffffffffffffffffffffffffffffffffff1614806138c257506138c18484612016565b5b8061390057508273ffffffffffffffffffffffffffffffffffffffff166138e8836125f6565b73ffffffffffffffffffffffffffffffffffffffff16145b5b90509392505050565b6000604051905090565b600080fd5b600080fd5b60007fffffffff0000000000000000000000000000000000000000000000000000000082169050919050565b6139538161391e565b811461395e57600080fd5b50565b6000813590506139708161394a565b92915050565b60006020828403121561398c5761398b613914565b5b600061399a84828501613961565b91505092915050565b60008115159050919050565b6139b8816139a3565b82525050565b60006020820190506139d360008301846139af565b92915050565b6000819050919050565b6139ec816139d9565b81146139f757600080fd5b50565b600081359050613a09816139e3565b92915050565b600060208284031215613a2557613a24613914565b5b6000613a33848285016139fa565b91505092915050565b600081519050919050565b600082825260208201905092915050565b60005b83811015613a76578082015181840152602081019050613a5b565b60008484015250505050565b6000601f19601f8301169050919050565b6000613a9e82613a3c565b613aa88185613a47565b9350613ab8818560208601613a58565b613ac181613a82565b840191505092915050565b60006020820190508181036000830152613ae68184613a93565b905092915050565b600073ffffffffffffffffffffffffffffffffffffffff82169050919050565b6000613b1982613aee565b9050919050565b613b2981613b0e565b82525050565b6000602082019050613b446000830184613b20565b92915050565b613b5381613b0e565b8114613b5e57600080fd5b50565b600081359050613b7081613b4a565b92915050565b60008060408385031215613b8d57613b8c613914565b5b6000613b9b85828601613b61565b9250506020613bac858286016139fa565b9150509250929050565b613bbf816139d9565b82525050565b6000602082019050613bda6000830184613bb6565b92915050565b600080600060608486031215613bf957613bf8613914565b5b6000613c0786828701613b61565b9350506020613c1886828701613b61565b9250506040613c29868287016139fa565b9150509250925092565b600060208284031215613c4957613c48613914565b5b6000613c5784828501613b61565b91505092915050565b600080fd5b600080fd5b600080fd5b60008083601f840112613c8557613c84613c60565b5b8235905067ffffffffffffffff811115613ca257613ca1613c65565b5b602083019150836001820283011115613cbe57613cbd613c6a565b5b9250929050565b60008060208385031215613cdc57613cdb613914565b5b600083013567ffffffffffffffff811115613cfa57613cf9613919565b5b613d0685828601613c6f565b92509250509250929050565b613d1b816139a3565b8114613d2657600080fd5b50565b600081359050613d3881613d12565b92915050565b60008060408385031215613d5557613d54613914565b5b6000613d6385828601613b61565b9250506020613d7485828601613d29565b9150509250929050565b6000604082019050613d936000830185613bb6565b613da06020830184613bb6565b9392505050565b600061010082019050613dbd600083018b613bb6565b613dca602083018a613bb6565b613dd76040830189613bb6565b613de46060830188613bb6565b613df16080830187613bb6565b613dfe60a0830186613bb6565b613e0b60c0830185613bb6565b613e1860e0830184613bb6565b9998505050505050505050565b600080fd5b7f4e487b7100000000000000000000000000000000000000000000000000000000600052604160045260246000fd5b613e6282613a82565b810181811067ffffffffffffffff82111715613e8157613e80613e2a565b5b80604052505050565b6000613e9461390a565b9050613ea08282613e59565b919050565b600067ffffffffffffffff821115613ec057613ebf613e2a565b5b613ec982613a82565b9050602081019050919050565b82818337600083830152505050565b6000613ef8613ef384613ea5565b613e8a565b905082815260208101848484011115613f1457613f13613e25565b5b613f1f848285613ed6565b509392505050565b600082601f830112613f3c57613f3b613c60565b5b8135613f4c848260208601613ee5565b91505092915050565b60008060008060808587031215613f6f57613f6e613914565b5b6000613f7d87828801613b61565b9450506020613f8e87828801613b61565b9350506040613f9f878288016139fa565b925050606085013567ffffffffffffffff811115613fc057613fbf613919565b5b613fcc87828801613f27565b91505092959194509250565b6000819050919050565b6000613ffd613ff8613ff384613aee565b613fd8565b613aee565b9050919050565b600061400f82613fe2565b9050919050565b600061402182614004565b9050919050565b61403181614016565b82525050565b600060208201905061404c6000830184614028565b92915050565b6000806040838503121561406957614068613914565b5b600061407785828601613b61565b925050602061408885828601613b61565b9150509250929050565b7f4e487b7100000000000000000000000000000000000000000000000000000000600052601160045260246000fd5b60006140cc826139d9565b91506140d7836139d9565b92508282026140e5816139d9565b915082820484148315176140fc576140fb614092565b5b5092915050565b7f4e487b7100000000000000000000000000000000000000000000000000000000600052601260045260246000fd5b600061413d826139d9565b9150614148836139d9565b92508261415857614157614103565b5b828204905092915050565b600061416e826139d9565b9150614179836139d9565b925082820390508181111561419157614190614092565b5b92915050565b7f4e487b7100000000000000000000000000000000000000000000000000000000600052602260045260246000fd5b600060028204905060018216806141de57607f821691505b6020821081036141f1576141f0614197565b5b50919050565b7f496e636f72726563742045544800000000000000000000000000000000000000600082015250565b600061422d600d83613a47565b9150614238826141f7565b602082019050919050565b6000602082019050818103600083015261425c81614220565b9050919050565b600081905092915050565b50565b600061427e600083614263565b91506142898261426e565b600082019050919050565b600061429f82614271565b9150819050919050565b7f455448207472616e7366657220746f207061796565206661696c656400000000600082015250565b60006142df601c83613a47565b91506142ea826142a9565b602082019050919050565b6000602082019050818103600083015261430e816142d2565b9050919050565b7f455448207472616e7366657220746f207661756c74206661696c656400000000600082015250565b600061434b601c83613a47565b915061435682614315565b602082019050919050565b6000602082019050818103600083015261437a8161433e565b9050919050565b60006060820190506143966000830186613b20565b6143a36020830185613bb6565b6143b06040830184613b20565b949350505050565b60006040820190506143cd6000830185613b20565b6143da6020830184613bb6565b9392505050565b7f416c72656164792072657665616c656400000000000000000000000000000000600082015250565b6000614417601083613a47565b9150614422826143e1565b602082019050919050565b600060208201905081810360008301526144468161440a565b9050919050565b7f496e76616c696420555249000000000000000000000000000000000000000000600082015250565b6000614483600b83613a47565b915061448e8261444d565b602082019050919050565b600060208201905081810360008301526144b281614476565b9050919050565b600082905092915050565b60008190508160005260206000209050919050565b60006020601f8301049050919050565b600082821b905092915050565b6000600883026145267fffffffffffffffffffffffffffffffffffffffffffffffffffffffffffffffff826144e9565b61453086836144e9565b95508019841693508086168417925050509392505050565b600061456361455e614559846139d9565b613fd8565b6139d9565b9050919050565b6000819050919050565b61457d83614548565b6145916145898261456a565b8484546144f6565b825550505050565b600090565b6145a6614599565b6145b1818484614574565b505050565b5b818110156145d5576145ca60008261459e565b6001810190506145b7565b5050565b601f82111561461a576145eb816144c4565b6145f4846144d9565b81016020851015614603578190505b61461761460f856144d9565b8301826145b6565b50505b505050565b600082821c905092915050565b600061463d6000198460080261461f565b1980831691505092915050565b6000614656838361462c565b9150826002028217905092915050565b61467083836144b9565b67ffffffffffffffff81111561468957614688613e2a565b5b61469382546141c6565b61469e8282856145d9565b6000601f8311600181146146cd57600084156146bb578287013590505b6146c5858261464a565b86555061472d565b601f1984166146db866144c4565b60005b82811015614703578489013582556001820191506020850194506020810190506146de565b86831015614720578489013561471c601f89168261462c565b8355505b6001600288020188555050505b50505050505050565b60006147428385613a47565b935061474f838584613ed6565b61475883613a82565b840190509392505050565b6000602082019050818103600083015261477e818486614736565b90509392505050565b7f4e487b7100000000000000000000000000000000000000000000000000000000600052603260045260246000fd5b7f4e6f6e6578697374656e7420746f6b656e000000000000000000000000000000600082015250565b60006147ec601183613a47565b91506147f7826147b6565b602082019050919050565b6000602082019050818103600083015261481b816147df565b9050919050565b600081905092915050565b6000815461483a816141c6565b6148448186614822565b9450600182166000811461485f5760018114614874576148a7565b60ff19831686528115158202860193506148a7565b61487d856144c4565b60005b8381101561489f57815481890152600182019150602081019050614880565b838801955050505b50505092915050565b60006148bb82613a3c565b6148c58185614822565b93506148d5818560208601613a58565b80840191505092915050565b7f2e6a736f6e000000000000000000000000000000000000000000000000000000600082015250565b6000614917600583614822565b9150614922826148e1565b600582019050919050565b6000614939828561482d565b915061494582846148b0565b91506149508261490a565b91508190509392505050565b7f4d757374206d696e74206174206c656173742031000000000000000000000000600082015250565b6000614992601483613a47565b915061499d8261495c565b602082019050919050565b600060208201905081810360008301526149c181614985565b9050919050565b60006149d3826139d9565b91506149de836139d9565b92508282019050808211156149f6576149f5614092565b5b92915050565b7f4d617820737570706c7920726561636865640000000000000000000000000000600082015250565b6000614a32601283613a47565b9150614a3d826149fc565b602082019050919050565b60006020820190508181036000830152614a6181614a25565b9050919050565b7f4d696e74206c696d697420657863656564656400000000000000000000000000600082015250565b6000614a9e601383613a47565b9150614aa982614a68565b602082019050919050565b60006020820190508181036000830152614acd81614a91565b9050919050565b6000606082019050614ae96000830186613b20565b614af66020830185613b20565b614b036040830184613bb6565b949350505050565b6000614b16826139d9565b91507fffffffffffffffffffffffffffffffffffffffffffffffffffffffffffffffff8203614b4857614b47614092565b5b600182019050919050565b6000604082019050614b686000830185613bb6565b8181036020830152614b7a8184613a93565b90509392505050565b600081519050919050565b600082825260208201905092915050565b6000614baa82614b83565b614bb48185614b8e565b9350614bc4818560208601613a58565b614bcd81613a82565b840191505092915050565b6000608082019050614bed6000830187613b20565b614bfa6020830186613b20565b614c076040830185613bb6565b8181036060830152614c198184614b9f565b905095945050505050565b600081519050614c338161394a565b92915050565b600060208284031215614c4f57614c4e613914565b5b6000614c5d84828501614c24565b91505092915050565b6000614c71826139d9565b9150614c7c836139d9565b925082614c8c57614c8b614103565b5b828206905092915050565b6000614ca2826139d9565b915060008203614cb557614cb4614092565b5b600182039050919050565b7f4e487b7100000000000000000000000000000000000000000000000000000000600052603160045260246000fdfea264697066735822122027e8c477811965325149403504bb5eff85c995229beae6ecb6e9b8c09c1db14c64736f6c634300081c0033",
  "linkReferences": {},
  "deployedLinkReferences": {}
}